:100000000C9434000C9446000C9446000C9446006A
:100010000C9446000C9446000C9446000C94460048
:100020000C9446000C9446000C9446000C94460038
:100030000C9446000C9446000C9446000C94460028
:100040000C9446000C9446000C9446000C94460018
:100050000C9446000C948D000C9446000C944600C1
:100060000C9446000C94460011241FBECFEFD8E03C
:10007000DEBFCDBF21E0A0E0B1E001C01D92A630FF
:10008000B207E1F70E9466000C9440010C94000056
:10009000ECE7F0E0108280818064808380818F773C
:1000A0008083808180628083EAE7F0E01082808133
:1000B000806880838081886080838081876080837E
:1000C000EEE7F0E08081816080830895F89484B148
:1000D000846084B917B868E070E082E00E94C300D1
:1000E00060E082E00E94A2008FE39CE90E94FA0097
:1000F0000E9448007894EAE7F0E080818064808381
:100100008FE39FE10197F1F700C000008091790033
:1001100062E090E00E940B01EECF1F920F920FB6AB
:100120000F9211248F93EF93FF93EAE7F0E0808121
:1001300080618083FF91EF918F910F900FBE0F90A0
:100140001F901895813019F0823079F00895613050
:1001500031F4E0E8F0E08081806C80830895E0E88D
:10016000F0E08081806880830895613031F4E0E8B8
:10017000F0E08081806380830895E0E8F0E0808192
:100180008062808308951092800010928100683010
:10019000710521F06115744039F00BC0E1E8F0E021
:1001A00090819260908305C0E1E8F0E090819560D5
:1001B0009083813019F0823061F00895E0E8F0E03A
:1001C000808183608083E1E8F0E0808188608083C3
:1001D0000895E0E8F0E0808182608083E1E8F0E06B
:1001E00080818861808381E090E090930101809319
:1001F0000001089520910001309101012130310565
:1002000029F490938700809386000895109201014D
:10021000109200010895613019F06230C9F008951C
:100220008091790090E0909305018093040182957C
:100230009295907F9827807F982788519C4F909324
:1002400003018093020190938900809388000895B0
:100250008091790090E0909305018093040182954C
:100260009295907F9827807F982788519C4F9093F4
:1002700003018093020190938B0080938A0008957C
:04028000F894FFCF20
:00000001FF
