:100000000C9434000C9446000C9446000C9446006A
:100010000C9446000C9446000C9446000C94460048
:100020000C9446000C9446000C9446000C94460038
:100030000C9446000C9446000C9446000C94460028
:100040000C9446000C9446000C9446000C94460018
:100050000C9446000C948B000C9446000C944600C3
:100060000C9446000C94460011241FBECFEFD8E03C
:10007000DEBFCDBF21E0A0E0B1E001C01D92A730FE
:10008000B207E1F70E9466000C9473010C94000023
:10009000ECE7F0E0108280818064808380818F773C
:1000A0008083808180628083EAE7F0E01082808133
:1000B000806880838081886080838081876080837E
:1000C000EEE7F0E08081876080830895F89484B142
:1000D000866084B917B868E070E082E00E94F6009C
:1000E00060E081E00E94D50060E082E00E94D500DF
:1000F0008FE39CE90E942D010E9448007894EAE772
:10010000F0E08081806480838FE39FE10197F1F7C5
:1001100000C00000F4CF1F920F920FB60F9211246F
:100120002F933F934F935F936F937F938F939F93FF
:10013000AF93BF93EF93FF93EAE7F0E08081806194
:1001400080838091000181110FC081E080930001C4
:10015000ECE7F0E08081807F80838091790062E02D
:1001600090E00E943E0110C0813071F410920001B5
:10017000ECE7F0E08081807F81608083809179006E
:1001800061E090E00E943E01FF91EF91BF91AF913D
:100190009F918F917F916F915F914F913F912F919F
:1001A0000F900FBE0F901F901895813019F082307C
:1001B00079F00895613031F4E0E8F0E08081806CFE
:1001C00080830895E0E8F0E080818068808308956E
:1001D000613031F4E0E8F0E080818063808308954D
:1001E000E0E8F0E0808180628083089510928000D2
:1001F000109281006830710521F06115744039F06A
:100200000BC0E1E8F0E090819260908305C0E1E8E6
:10021000F0E0908195609083813019F0823061F038
:100220000895E0E8F0E0808183608083E1E8F0E019
:100230008081886080830895E0E8F0E080818260BA
:100240008083E1E8F0E080818861808381E090E054
:100250009093020180930101089520910101309152
:1002600002012130310529F49093870080938600A4
:10027000089510920201109201010895613019F061
:100280006230C9F008958091790090E09093060162
:100290008093050182959295907F9827807F98277B
:1002A00088519C4F9093040180930301909389009F
:1002B0008093880008958091790090E090930601E2
:1002C0008093050182959295907F9827807F98274B
:1002D00088519C4F909304018093030190938B006D
:0A02E00080938A000895F894FFCF80
:00000001FF
